{
  "abi": [
    {
      "inputs": [
        {
          "internalType": "uint256",
          "name": "length",
          "type": "uint256"
        }
      ],
      "name": "SchemaLib_InvalidLength",
      "type": "error"
    },
    {
      "inputs": [],
      "name": "SchemaLib_StaticTypeAfterDynamicType",
      "type": "error"
    },
    {
      "inputs": [
        {
          "internalType": "bytes",
          "name": "data",
          "type": "bytes"
        },
        {
          "internalType": "uint256",
          "name": "start",
          "type": "uint256"
        },
        {
          "internalType": "uint256",
          "name": "end",
          "type": "uint256"
        }
      ],
      "name": "Slice_OutOfBounds",
      "type": "error"
    },
    {
      "inputs": [
        {
          "internalType": "uint256",
          "name": "expected",
          "type": "uint256"
        },
        {
          "internalType": "uint256",
          "name": "received",
          "type": "uint256"
        }
      ],
      "name": "StoreCore_InvalidDataLength",
      "type": "error"
    },
    {
      "inputs": [
        {
          "internalType": "bytes32",
          "name": "tableId",
          "type": "bytes32"
        },
        {
          "internalType": "string",
          "name": "tableIdString",
          "type": "string"
        }
      ],
      "name": "StoreCore_TableNotFound",
      "type": "error"
    },
    {
      "inputs": [
        {
          "internalType": "int32",
          "name": "hDir",
          "type": "int32"
        },
        {
          "internalType": "int32",
          "name": "vDir",
          "type": "int32"
        },
        {
          "internalType": "int32",
          "name": "shootDir",
          "type": "int32"
        },
        {
          "internalType": "int32",
          "name": "hDir2",
          "type": "int32"
        },
        {
          "internalType": "int32",
          "name": "vDir2",
          "type": "int32"
        },
        {
          "internalType": "int32",
          "name": "shootDir2",
          "type": "int32"
        }
      ],
      "name": "tic",
      "outputs": [],
      "stateMutability": "nonpayable",
      "type": "function"
    }
  ],
  "bytecode": {
    "object": "0x608060405234801561001057600080fd5b50613195806100206000396000f3fe608060405234801561001057600080fd5b506004361061002a5760003560e01c8062a27b8d1461002f575b600080fd5b61004261003d366004612b1a565b610044565b005b600061006a610051610463565b73ffffffffffffffffffffffffffffffffffffffff1690565b905060008061007883610495565b90925090506001821515146100d45760405162461bcd60e51b815260206004820152601c60248201527f7468652067616d6520776173206e6f742063726561746564207965740000000060448201526064015b60405180910390fd5b600060018260018111156100ea576100ea612b8e565b0361014b576100f884610551565b9050600081900361014b5760405162461bcd60e51b815260206004820152601560248201527f706c617965722074776f206973206d697373696e67000000000000000000000060448201526064016100cb565b600061015685610602565b600281111561016757610167612b8e565b146101b45760405162461bcd60e51b815260206004820152601c60248201527f7468652067616d6520686173206e6f742073746172746564207965740000000060448201526064016100cb565b6101bd846106a2565b63ffffffff166000036101de576101d58460026106d9565b5050505061045b565b6000806101ec868d8d6107d2565b9150915060008061022761021f897f70310000000000000000000000000000000000000000000000000000000000001890565b85858f610873565b9150915060008061026161025a8b7f656e656d790000000000000000000000000000000000000000000000000000001890565b87876109e6565b909250905061028a84846005610278601e87612bba565b610283866008612c04565b6018610a88565b15610304576102c17f70310000000000000000000000000000000000000000000000000000000000008b185b600080600080610b08565b6102ec7f656e656d790000000000000000000000000000000000000000000000000000008b18610bea565b63ffffffff16600003610304576103048a60016106d9565b600061030f8b610c40565b905061034261031f600889612bba565b61032a88600e612c04565b6005610337601e88612bba565b610283876008612c04565b15610381578063ffffffff166000036103815761035e8b610bea565b63ffffffff16600003610376576103768b60026106d9565b6103818b601e610c6d565b871561044f57610392888f8f6107d2565b90975095506103c57f70320000000000000000000000000000000000000000000000000000000000008c1888888f610873565b90955093506103dc8585600d610337601e88612bba565b1561044f5761040c7f70320000000000000000000000000000000000000000000000000000000000008c186102b6565b6104377f656e656d790000000000000000000000000000000000000000000000000000008c18610bea565b63ffffffff1660000361044f5761044f8b60016106d9565b50505050505050505050505b505050505050565b7fffffffffffffffffffffffffffffffffffffffffffffffffffffffffffffffec36013560601c806104925750335b90565b604080516001808252818301909252600091829182916020808301908036833701905050905083816000815181106104cf576104cf612c63565b6020908102919091018101919091526040805160009281018390527f4d61746368000000000000000000000000000000000000000000000000000000603082015261053b910160405160208183030381529060405261052d90612c79565b83610536610d3f565b610dfc565b905061054681610ea2565b935093505050915091565b60408051600180825281830190925260009182919060208083019080368337019050509050828160008151811061058a5761058a612c63565b6020908102919091018101919091526040805160009281018390527f506c6179657254776f000000000000000000000000000000000000000000000060308201526105f191015b6040516020818303038152906040526105e990612c79565b836000610eda565b60208101519091505b949350505050565b60408051600180825281830190925260009182919060208083019080368337019050509050828160008151811061063b5761063b612c63565b6020908102919091018101919091526040805160009281018390527f43757272656e7447616d65537461746500000000000000000000000000000000603082015261068691016105d1565b602081015190915060f81c60028111156105fa576105fa612b8e565b6000806106ae83610f34565b905063ffffffff8116156106d357806106c681612ca0565b9150506106d38382610fc7565b92915050565b60408051600180825281830190925260009160208083019080368337019050509050828160008151811061070f5761070f612c63565b602090810291909101810191909152604080516000818401527f43757272656e7447616d65537461746500000000000000000000000000000000603082015281518082039093018352810190526107cd9061076990612c79565b82600085600281111561077e5761077e612b8e565b6040516020016107b9919060f89190911b7fff0000000000000000000000000000000000000000000000000000000000000016815260010190565b604051602081830303815290604052611049565b505050565b6000806000806107e1876110e2565b909250905060006107f387600a612cc0565b6107fd9084612c04565b905060108160030b121561080f575060105b6101708160030b131561082157506101705b600061082e87600a612cc0565b6108389084612c04565b905060008160030b121561084a575060005b60bc8160030b131561085a575060bc5b61086589838361119d565b909890975095505050505050565b6000806000806000806108858a611250565b93509350935093508315801561089f57508660030b600014155b156108d9576108af60088a612bba565b92506108bc88600e612c04565b91506108cc8a600185858b610b08565b5090935091506109dd9050565b83156109d0578060030b6001036108fc576108f5836014612c04565b9250610948565b8060030b600203610912576108f5601484612bba565b8060030b60030361092f57610928826014612c04565b9150610948565b8060030b60040361094857610945601483612bba565b91505b60008360030b13610973576109628a600080600080610b08565b6103e88095509550505050506109dd565b6101848360030b1261098e576109628a600080600080610b08565b60008260030b136109a8576109628a600080600080610b08565b60f48260030b126109c2576109628a600080600080610b08565b6108cc8a6001858585610b08565b6103e88095509550505050505b94509492505050565b6000806000806109f5876110e2565b915091508560030b8260030b1315610a1957610a12600583612bba565b9150610a35565b8560030b8260030b1215610a3557610a32600583612c04565b91505b8460030b8160030b1315610a5557610a4e600582612bba565b9050610a71565b8460030b8160030b1215610a7157610a6e600582612c04565b90505b610a7c87838361119d565b90969095509350505050565b600080600385900b610a9a878a612c04565b60030b12158015610abb5750600388900b610ab58487612c04565b60030b12155b90506000600385900b610ace888a612c04565b60030b12158015610aef5750600388900b610ae98587612c04565b60030b12155b9050818015610afb5750805b9998505050505050505050565b6040805185151560f81b60208083019190915260e086811b602184015285811b602584015284901b60298301528251600d8184030181526001602d8401818152606d850190955290936000939092604d90910190803683370190505090508681600081518110610b7a57610b7a612c63565b602090810291909101810191909152604080516000928101929092527f50726f6a656374696c00000000000000000000000000000000000000000000006030830152610be191015b604051602081830303815290604052610bda90612c79565b8284611311565b50505050505050565b600080610bf683611397565b90508063ffffffff16600103610c1a57610c1183600061141b565b50600092915050565b610c2e83610c29600184612d4f565b61141b565b610c39600182612d4f565b9392505050565b600080610c4c8361149d565b905063ffffffff8116156106d35780610c6481612ca0565b9150506106d383825b604080516001808252818301909252600091602080830190803683370190505090508281600081518110610ca357610ca3612c63565b602090810291909101810191909152604080516000928101929092527f496e6d756e65000000000000000000000000000000000000000000000000000060308301526107cd91015b604051602081830303815290604052610d0390612c79565b6040517fffffffff0000000000000000000000000000000000000000000000000000000060e086901b16602082015283906000906024016107b9565b60408051600280825260608201835260009283929190602083019080368337019050509050606081600081518110610d7957610d79612c63565b602002602001019060c5811115610d9257610d92612b8e565b908160c5811115610da557610da5612b8e565b81525050600081600181518110610dbe57610dbe612c63565b602002602001019060c5811115610dd757610dd7612b8e565b908160c5811115610dea57610dea612b8e565b905250610df681611521565b91505090565b6060610e066117ad565b15610e1d57610e1684848461182b565b9050610c39565b6040517f419b58fd000000000000000000000000000000000000000000000000000000008152339063419b58fd90610e5d90879087908790600401612daf565b600060405180830381865afa158015610e7a573d6000803e3d6000fd5b505050506040513d6000823e601f3d908101601f19168201604052610e169190810190612e04565b60208101516000908190610eb7905b60f81c90565b602184015190925060f81c6001811115610ed357610ed3612b8e565b9050915091565b6060610ee46117ad565b15610ef457610e16848484611990565b6040517fd03edb8c000000000000000000000000000000000000000000000000000000008152339063d03edb8c90610e5d90879087908790600401612ea6565b604080516001808252818301909252600091829190602080830190803683370190505090508281600081518110610f6d57610f6d612c63565b6020908102919091018101919091526040805160009281018390527f54696d65000000000000000000000000000000000000000000000000000000006030820152610fb891016105d1565b6020015160e01c949350505050565b604080516001808252818301909252600091602080830190803683370190505090508281600081518110610ffd57610ffd612c63565b602090810291909101810191909152604080516000928101929092527f54696d650000000000000000000000000000000000000000000000000000000060308301526107cd9101610ceb565b6110516117ad565b1561106757611062848484846119b4565b6110dc565b6040517f114a7266000000000000000000000000000000000000000000000000000000008152339063114a7266906110a9908790879087908790600401612efe565b600060405180830381600087803b1580156110c357600080fd5b505af11580156110d7573d6000803e3d6000fd5b505050505b50505050565b6040805160018082528183019092526000918291829160208083019080368337019050509050838160008151811061111c5761111c612c63565b6020908102919091018101919091526040805160009281018390527f506f736974696f6e0000000000000000000000000000000000000000000000006030820152611183910160405160208183030381529060405261117a90612c79565b83610536611b9f565b6020810151602482015191925060e090811c91901c610546565b6040805160e084811b6020808401919091529084901b60248301528251600881840301815260016028840181815260688501909552909360009390926048909101908036833701905050905084816000815181106111fd576111fd612c63565b602090810291909101810191909152604080516000928101929092527f506f736974696f6e00000000000000000000000000000000000000000000000060308301526112499101610bc2565b5050505050565b604080516001808252818301909252600091829182918291829160208083019080368337019050509050858160008151811061128e5761128e612c63565b6020908102919091018101919091526040805160009281018390527f50726f6a656374696c000000000000000000000000000000000000000000000060308201526112f591016040516020818303038152906040526112ec90612c79565b83610536611c1e565b905061130081611d28565b955095509550955050509193509193565b6113196117ad565b15611329576107cd838383611d66565b6040517f8ed41f2f0000000000000000000000000000000000000000000000000000000081523390638ed41f2f9061136990869086908690600401612f32565b600060405180830381600087803b15801561138357600080fd5b505af1158015610be1573d6000803e3d6000fd5b6040805160018082528183019092526000918291906020808301908036833701905050905082816000815181106113d0576113d0612c63565b6020908102919091018101919091526040805160009281018390527f43757272656e74487000000000000000000000000000000000000000000000006030820152610fb891016105d1565b60408051600180825281830190925260009160208083019080368337019050509050828160008151811061145157611451612c63565b602090810291909101810191909152604080516000928101929092527f43757272656e744870000000000000000000000000000000000000000000000060308301526107cd9101610ceb565b6040805160018082528183019092526000918291906020808301908036833701905050905082816000815181106114d6576114d6612c63565b6020908102919091018101919091526040805160009281018390527f496e6d756e6500000000000000000000000000000000000000000000000000006030820152610fb891016105d1565b6000601c825111156115645781516040517f5318beb90000000000000000000000000000000000000000000000000000000081526004016100cb91815260200190565b60008060008060005b86518110156116905760006115ab88838151811061158d5761158d612c63565b602002602001015160c58111156115a6576115a6612b8e565b611f47565b905061ffff8116156116015782156115ef576040517ff1e56be400000000000000000000000000000000000000000000000000000000815260040160405180910390fd5b836115f981612f67565b945050611606565b600192505b6116108186612f86565b945061168586611621846004612fac565b8a858151811061163357611633612c63565b602002602001015160c581111561164c5761164c612b8e565b60f81b6008820281811c7fff0000000000000000000000000000000000000000000000000000000000000090911c198416179392505050565b95505060010161156d565b5060008287516116a09190612fc4565b9050600e8160ff1611156116e5576040517f5318beb900000000000000000000000000000000000000000000000000000000815260ff821660048201526024016100cb565b7dffffffffffffffffffffffffffffffffffffffffffffffffffffffffffff851660f085901b1794507fffff00ffffffffffffffffffffffffffffffffffffffffffffffffffffffffff85167dff000000000000000000000000000000000000000000000000000000000060e885901b161794507fffffff00ffffffffffffffffffffffffffffffffffffffffffffffffffffffff85167cff0000000000000000000000000000000000000000000000000000000060e083901b16175b979650505050505050565b6000303b8082036117c057600191505090565b3073ffffffffffffffffffffffffffffffffffffffff1663a5c2f0076040518163ffffffff1660e01b815260040160006040518083038186803b15801561180657600080fd5b505afa925050508015611817575060015b61182357600091505090565b600191505090565b606060006118398360f01c90565b90508060008061184886611fef565b60ff16905080156118935761185d8888612000565b9150600061186b8360e01c90565b11156118935761187b8260e01c90565b611886906020612fac565b6118909084612fac565b92505b60008367ffffffffffffffff8111156118ae576118ae612c4d565b6040519080825280601f01601f1916602001820160405280156118d8576020820181803683370190505b509050602081016118eb8a8a8884612017565b6118f58460e01c90565b60000361190957509450610c399350505050565b6119138682612fac565b8481529050611923602082612fac565b905060005b838160ff1610156119815760006119408c8c84612038565b905060006119518760ff8516612091565b905061196082826000876120c3565b61196a8185612fac565b93505050808061197990612f67565b915050611928565b50909998505050505050505050565b6060600061199d85612178565b90506119ab858585846121cd565b95945050505050565b60006119bf85612178565b90507fd01f9f1368f831528fc9fe6442366b2b7d957fbfff3bcf7c24d9ab5fe51f8c46858585856040516119f69493929190612efe565b60405180910390a16000611a0986612204565b905060005b8151811015611aba576000828281518110611a2b57611a2b612c63565b602002602001015190508073ffffffffffffffffffffffffffffffffffffffff1663469b7ee2898989896040518563ffffffff1660e01b8152600401611a749493929190612efe565b600060405180830381600087803b158015611a8e57600080fd5b505af1158015611aa2573d6000803e3d6000fd5b50505050508080611ab290612fe7565b915050611a0e565b50611ac4826122c3565b60ff168460ff161015611ae357611ade86868487876122cf565b611af0565b611af08686848787612375565b60005b8151811015610be1576000828281518110611b1057611b10612c63565b602002602001015190508073ffffffffffffffffffffffffffffffffffffffff16636b3d7d5f898989896040518563ffffffff1660e01b8152600401611b599493929190612efe565b600060405180830381600087803b158015611b7357600080fd5b505af1158015611b87573d6000803e3d6000fd5b50505050508080611b9790612fe7565b915050611af3565b60408051600280825260608201835260009283929190602083019080368337019050509050602381600081518110611bd957611bd9612c63565b602002602001019060c5811115611bf257611bf2612b8e565b908160c5811115611c0557611c05612b8e565b81525050602381600181518110610dbe57610dbe612c63565b60408051600480825260a0820190925260009182919060208201608080368337019050509050606081600081518110611c5957611c59612c63565b602002602001019060c5811115611c7257611c72612b8e565b908160c5811115611c8557611c85612b8e565b81525050602381600181518110611c9e57611c9e612c63565b602002602001019060c5811115611cb757611cb7612b8e565b908160c5811115611cca57611cca612b8e565b81525050602381600281518110611ce357611ce3612c63565b602002602001019060c5811115611cfc57611cfc612b8e565b908160c5811115611d0f57611d0f612b8e565b81525050602381600381518110610dbe57610dbe612c63565b600080600080611d40610eb186600060209101015190565b60218601516025870151602990970151919760e091821c97821c965091901c9350915050565b6000611d7184612178565b9050600080611d8083856123b2565b915091507f912af873e852235aae78a1d25ae9bb28b616a67c36898c53a14fd8184504ee32868686604051611db793929190612f32565b60405180910390a16000611dca87612204565b905060005b8151811015611e79576000828281518110611dec57611dec612c63565b602002602001015190508073ffffffffffffffffffffffffffffffffffffffff166382b6745f8a8a8a6040518463ffffffff1660e01b8152600401611e3393929190612f32565b600060405180830381600087803b158015611e4d57600080fd5b505af1158015611e61573d6000803e3d6000fd5b50505050508080611e7190612fe7565b915050611dcf565b506000611e868888612450565b905060208601611e9982600083886124a6565b611ea4856020612fac565b611eae9082612fac565b9050611eb986611fef565b60ff16600003611ece57505050505050505050565b6000611eda8a8a612564565b858155905060008060005b611eee8a611fef565b60ff168160ff161015611f3857611f068d8d83612038565b9250611f158860ff8316612091565b9150611f2483600087856124a6565b611f2e8286612fac565b9450600101611ee5565b50505050505050505050505050565b6000808260c5811115611f5c57611f5c612b8e565b60ff1690506020811015611f7557610c39816001612fac565b6040811015611f95576020611f8b826001612fac565b610c399190613001565b6060811015611fab576040611f8b826001612fac565b60608360c5811115611fbf57611fbf612b8e565b03611fcd5750600192915050565b60618360c5811115611fe157611fe1612b8e565b03610c115750601492915050565b6000601882901b5b60f81c92915050565b60008061200d8484612564565b90506105fa815490565b81156110dc5760006120298585612450565b905061124981846000856120c3565b60007f86425bff6b57326c7859e89024fe4f238ca327a1ae4a230180dd2f0e88aaa7d98484846040516020016120719493929190613018565b60408051601f198184030181529190528051602090910120949350505050565b60008061209f83600261304b565b6120aa906004612fac565b90506120b884826008021b90565b60f01c949350505050565b6020820484019350602082816120db576120db61306a565b069150811561212c5760208290036000600019600883021c1990508554600885021b8119845116828216178452508185116121175750506110dc565b612122600187612fac565b9550509283900392015b602083106121545783548152612143600185612fac565b9350601f199092019160200161212c565b82156110dc576000600019600885021c198251865482169119161782525050505050565b60006121838261259b565b9050806121c8578161219483612656565b6040517fd623a70d0000000000000000000000000000000000000000000000000000000081526004016100cb929190613080565b919050565b60606121d8826122c3565b60ff168360ff1610156121f8576121f185858585612681565b90506105fa565b6121f1858585856126d4565b6040805160018082528183019092526060916000919060208083019080368337019050509050828160008151811061223e5761223e612c63565b602090810291909101810191909152604080517f6d756473746f7265000000000000000000000000000000000000000000000000928101929092527f486f6f6b7300000000000000000000000000000000000000000000000000000060308301526000916122ac91016105d1565b90506105fa6122be826000845161272d565b6127bd565b6000601082901b611ff7565b60006122de8460ff85166127ce565b905081516122f78260c58111156115a6576115a6612b8e565b1461234e576123118160c58111156115a6576115a6612b8e565b82516040517f521b3d33000000000000000000000000000000000000000000000000000000008152600481019290925260248201526044016100cb565b600061235a8787612450565b9050600061236886866127fa565b90506110d782828661284e565b6000612380846122c3565b61238a9084612fc4565b90506123998686838551612863565b60006123a6878784612038565b9050610be18184612895565b6000806123bf8460f01c90565b91508160006123cd86611fef565b60ff161115612401578284016020015191506123e98260e01c90565b6123f4906020612fac565b6123fe9082612fac565b90505b835181146124485783516040517f521b3d330000000000000000000000000000000000000000000000000000000081526100cb918391600401918252602082015260400190565b509250929050565b60007f86425bff6b57326c7859e89024fe4f238ca327a1ae4a230180dd2f0e88aaa7d9838360405160200161248793929190613099565b60408051601f1981840301815291905280516020909101209392505050565b6020830484019350602083816124be576124be61306a565b06925082156125175760208390036000600019600884021c1990506008850281811c91508451811c90508119875416828216178755508183116125025750506110dc565b61250d600187612fac565b9550509182019190035b60208110612540578151845561252e600185612fac565b935060209190910190601f1901612517565b80156110dc576000600019600883021c198554845182169119161785555050505050565b60007f86425bff6b57326c7859e89024fe4f238ca327a1ae4a230180dd2f0e88aaa7d98383604051602001612487939291906130b8565b6040805160018082528183019092526000918291906020808301908036833701905050905082816000815181106125d4576125d4612c63565b602090810291909101810191909152604080517f6d756473746f7265000000000000000000000000000000000000000000000000818401527f736368656d6100000000000000000000000000000000000000000000000000006030820152815180820390930183528101905260009061200d9061265090612c79565b83612450565b60608160405160200161266b91815260200190565b6040516020818303038152906040529050919050565b606060006126928360ff86166127ce565b905060006126ab8260c58111156115a6576115a6612b8e565b905060006126b98888612450565b905060006126c786886127fa565b9050610afb8284836128a5565b606060006126e1836122c3565b6126eb9085612fc4565b905060006126fa878784612038565b905060006127158360ff1661270f8a8a612000565b90612091565b905061272182826128fd565b98975050505050505050565b6000818311158015612740575083518211155b61277c578383836040517f23230fa30000000000000000000000000000000000000000000000000000000081526004016100cb93929190613118565b6020840161278a8482612fac565b905060006127988585613001565b6fffffffffffffffffffffffffffffffff1660809290921b9190911795945050505050565b60606000610c39836014600061290b565b60006127e6836127df846004612fac565b6008021b90565b60f81c60c5811115610c3957610c39612b8e565b600080805b8360ff168110156128465761282861281786836127ce565b60c58111156115a6576115a6612b8e565b6128329083612fac565b91508061283e81612fe7565b9150506127ff565b509392505050565b60006020820190506110dc84848385516124a6565b600061286f8585612564565b9050600061287b825490565b905061288b8160ff861685612a34565b808355905061045b565b6128a18260008361284e565b5050565b60608267ffffffffffffffff8111156128c0576128c0612c4d565b6040519080825280601f01601f1916602001820160405280156128ea576020820181803683370190505b50905060208101612846858585846120c3565b6060610c39838360006128a5565b606060006129198560801c90565b90506fffffffffffffffffffffffffffffffff85166000846129515761294086600861304b565b61294c90610100613001565b612954565b60005b905060008683816129675761296761306a565b049050612974878461313d565b156129e75760405162461bcd60e51b815260206004820152603d60248201527f756e7061636b546f41727261793a207061636b65644c656e677468206d75737460448201527f2062652061206d756c7469706c65206f6620656c656d656e7453697a6500000060648201526084016100cb565b602080820201604051955080860160405250808552600060208601855b83831015612a26578051851c8252600192909201916020909101908901612a04565b505050505050509392505050565b60008381612a428260e01c90565b90506000612a53878760ff16612091565b9050808510612a7757612a668186613001565b612a709083612fac565b9150612a8e565b612a818582613001565b612a8b9083613001565b91505b6000612a9b87600261304b565b612aa6906004612fac565b90507bffffffffffffffffffffffffffffffffffffffffffffffffffffffff841660e084901b1793507fffff0000000000000000000000000000000000000000000000000000000000006008820290811c19851660f088901b90911c17612721565b8035600381900b81146121c857600080fd5b60008060008060008060c08789031215612b3357600080fd5b612b3c87612b08565b9550612b4a60208801612b08565b9450612b5860408801612b08565b9350612b6660608801612b08565b9250612b7460808801612b08565b9150612b8260a08801612b08565b90509295509295509295565b634e487b7160e01b600052602160045260246000fd5b634e487b7160e01b600052601160045260246000fd5b60008160030b8360030b6000811281637fffffff1901831281151615612be257612be2612ba4565b81637fffffff018313811615612bfa57612bfa612ba4565b5090039392505050565b60008160030b8360030b6000821282637fffffff03821381151615612c2b57612c2b612ba4565b82637fffffff19038212811615612c4457612c44612ba4565b50019392505050565b634e487b7160e01b600052604160045260246000fd5b634e487b7160e01b600052603260045260246000fd5b80516020808301519190811015612c9a576000198160200360031b1b821691505b50919050565b600063ffffffff821680612cb657612cb6612ba4565b6000190192915050565b60008160030b8360030b637fffffff600082136000841383830485118282161615612ced57612ced612ba4565b637fffffff196000851286820586128184161615612d0d57612d0d612ba4565b60008712925085820587128484161615612d2957612d29612ba4565b85850587128184161615612d3f57612d3f612ba4565b5050509290910295945050505050565b600063ffffffff83811690831681811015612d6c57612d6c612ba4565b039392505050565b600081518084526020808501945080840160005b83811015612da457815187529582019590820190600101612d88565b509495945050505050565b838152606060208201526000612dc86060830185612d74565b9050826040830152949350505050565b60005b83811015612df3578181015183820152602001612ddb565b838111156110dc5750506000910152565b600060208284031215612e1657600080fd5b815167ffffffffffffffff80821115612e2e57600080fd5b818401915084601f830112612e4257600080fd5b815181811115612e5457612e54612c4d565b604051601f8201601f19908116603f01168101908382118183101715612e7c57612e7c612c4d565b81604052828152876020848701011115612e9557600080fd5b6117a2836020830160208801612dd8565b838152606060208201526000612ebf6060830185612d74565b905060ff83166040830152949350505050565b60008151808452612eea816020860160208601612dd8565b601f01601f19169290920160200192915050565b848152608060208201526000612f176080830186612d74565b60ff8516604084015282810360608401526117a28185612ed2565b838152606060208201526000612f4b6060830185612d74565b8281036040840152612f5d8185612ed2565b9695505050505050565b600060ff821660ff8103612f7d57612f7d612ba4565b60010192915050565b600061ffff808316818516808303821115612fa357612fa3612ba4565b01949350505050565b60008219821115612fbf57612fbf612ba4565b500190565b600060ff821660ff841680821015612fde57612fde612ba4565b90039392505050565b60006000198203612ffa57612ffa612ba4565b5060010190565b60008282101561301357613013612ba4565b500390565b8481528360208201526080604082015260006130376080830185612d74565b905060ff8316606083015295945050505050565b600081600019048311821515161561306557613065612ba4565b500290565b634e487b7160e01b600052601260045260246000fd5b8281526040602082015260006105fa6040830184612ed2565b8381528260208201526060604082015260006119ab6060830184612d74565b8381528260208201526080604082015260006130d76080830184612d74565b8281036060840152600681527f6c656e6774680000000000000000000000000000000000000000000000000000602082015260408101915050949350505050565b60608152600061312b6060830186612ed2565b60208301949094525060400152919050565b60008261315a57634e487b7160e01b600052601260045260246000fd5b50069056fea2646970667358221220959c2e593ab58d18fe1a0a16127126ec8177df2f661c8c4537eeaab6fe39b62264736f6c634300080d0033",
    "linkReferences": {}
  },
  "methodIdentifiers": {
    "tic(int32,int32,int32,int32,int32,int32)": "00a27b8d"
  },
  "id": 123
}